:100000000C9449000C9466000C9466000C946600F5
:100010000C9466000C9466000C9466000C946600C8
:100020000C9466000C9466000C9466000C946600B8
:100030000C9466000C9466000C9466000C946600A8
:100040000C9466000C9466000C9466000C94660098
:100050000C9466000C9466000C9466000C94660088
:100060000C9466000C9466003B0852086A088108EC
:1000700095089A089F08B208C908E008F6080A0916
:100080000F091409230928092D09320937093C09E8
:10009000410911241FBECFEFD8E0DEBFCDBF11E074
:1000A000A0E0B1E0E2E4F4E102C005900D92A833D3
:1000B000B107D9F721E0A8E3B1E001C01D92A33652
:1000C000B207E1F70E947A060C941F0A0C94000014
:1000D000E4E6F0E080818E7F808387B1887F87B9F6
:1000E00080E480937C00EAE7F0E085E8808380810B
:1000F000806480830895ECE7F0E09081907F8F70BA
:10010000892B808390E140E050E0BA01EAE7F0E01B
:10011000A8E7B0E0808180648083808184FFFDCF88
:100120002D913C911197420F531F611D711D9150EC
:1001300089F79A01AB01689413F85695479537955E
:1001400027951694D1F7A8E8B3E10E948D09052EF2
:100150005AE096958795779567955A95D1F7502DE2
:1001600008953D9A3C9A80E28093B8000895ECEBA4
:10017000F0E0108294EA908390819923ECF79091BB
:10018000B900987F9830A1F48093BB0084E88093F5
:10019000BC00ECEBF0E080818823ECF79091B90093
:1001A000987F983139F081E0903429F480E0089507
:1001B00081E0089580E008958093BB0084E88093F7
:1001C000BC00ECEBF0E080818823ECF79091B90063
:1001D000987F81E0983209F480E0089584EC809360
:1001E000BC00ECEBF0E080818823ECF78091BB0051
:1001F000089584E88093BC00ECEBF0E080818823D4
:10020000ECF78091BB000895CF92DF92FF920F939D
:100210001F93CF93DF93C62F6A0189010E94B70015
:10022000F82E811115C08C2F0E94DC0001151105DC
:1002300059F0E6010C0D1D1D89910E94DC00811111
:100240000AC0C017D107C1F784E98093BC0005C07C
:10025000FF24F39402C0FF24F3948F2DDF91CF91FC
:100260001F910F91FF90DF90CF900895AF92BF92B2
:10027000DF92EF92FF920F931F93CF93DF93182F8C
:10028000062F5A01E9010E94B700811122C0802F78
:100290000E94DC00812F81600E94B700D82E81115E
:1002A0001BC08E010150110951F0E5017501E00EEE
:1002B000F11E0E94EE008993EC16FD06D1F7E501D0
:1002C000C00FD11F0E94F900888384E98093BC008D
:1002D00005C0DD24D39402C0DD24D3948D2DDF919D
:1002E000CF911F910F91FF90EF90DF90BF90AF9053
:1002F0000895E4E6F0E09081977F9083823099F052
:1003000018F4813031F02CC08330B9F08430F9F02A
:1003100027C08AE08093810087EE93E09093890064
:10032000809388001DC08AE0809381008FE097E26F
:10033000909389008093880013C08BE080938100A4
:1003400083ED90E3909389008093880009C08EE04C
:100350008093810081E19AE79093890080938800DF
:10036000EFE6F0E08081826080830895B19B03C056
:10037000B19A81E0089580E008955098519A9BB118
:100380009C7F9BB91092C5008093C400E2ECF0E022
:10039000808186608083E1ECF0E0808188618083E9
:1003A0000895E0ECF0E0908195FFFDCF8093C600CA
:1003B0000895CF93DF93EC018881882331F0219653
:1003C0000E94D10189918111FBCFDF91CF910895D6
:1003D000CF93DF93CDB7DEB764970FB6F894DEBF47
:1003E0000FBECDBFDC01CB01FE0131969E012B5E1D
:1003F0003F4F1192E217F307E1F74AE0BE016F5F4A
:100400007F4F0E94EA09CE0101960E94D9016496AD
:100410000FB6F894DEBF0FBECDBFDF91CF91089528
:10042000CF93DF93EC0188819981A8E3B1E0119625
:100430009C938E93EA81FB811396FC93EE93129723
:100440008C819D8115969C938E9314978E81169620
:100450008C931697888518968C9318978F8117968A
:100460008C930995DF91CF9108958F929F92AF92CF
:10047000BF92CF92DF92EF92FF920F93A8E3B1E089
:10048000ED91FC91119716968C9109952BEA3AEA19
:100490004AEA5AEA0E94980900E20E94C509822E9F
:1004A000932EA42EB52EC501B40196958795779508
:1004B000679596958795779567950F91FF90EF9043
:1004C000DF90CF90BF90AF909F908F900895CF9284
:1004D000DF92EF92FF920F931F93A8E3B1E0ED91AB
:1004E000FC91119717968C9109956B017C01CC0CAE
:1004F000DD1CEE1CFF1C97018601000F111F221F3F
:10050000331F000F111F221F331F0C0D1D1D2E1D29
:100510003F1D600F711F821F931F1F910F91FF904E
:10052000EF90DF90CF900895A8E3B1E0ED91FC91BA
:10053000119718968C9109952AE030E040E050E040
:100540000E945609CA01B9010895CF92DF92EF9235
:10055000FF920E9467026B017C010E943502A70195
:1005600096010E94460928EE33E040E050E00E94E8
:100570005609CA01B901FF90EF90DF90CF9008951E
:100580008F929F92AF92BF92CF92DF92EF92FF92A3
:100590000F931F93CF93DF93EC018B010E943502E1
:1005A000688379838A839B830E9467026C837D833F
:1005B0008E839F830E949402688779878A879B87AE
:1005C0000E94A5026C877D878E879F878884998487
:1005D000AA84BB84F801C080D180E280F380C81473
:1005E000D904EA04FB04B0F0C084D184E284F3842B
:1005F000C616D706E806F90668F04C815D816E8163
:100600007F8184859585A685B785481759076A0730
:100610007B0718F4F801108A88C0F80180898823C4
:1006200009F483C0813009F07BC044815581668123
:10063000778188819981AA81BB818A019B01081BEE
:10064000190B2A0B3B0BDB01CA01880F991FAA1F4C
:10065000BB1F840F951FA61FB71F880F991FAA1FC6
:10066000BB1F8093410190934201A0934301B0933B
:100670004401F801FF2324F4EE27FF27E01BF10BD0
:10068000329708F443C0C880D980EA80FB804C15BB
:100690005D056E057F05D8F4B901A801440F551F0B
:1006A000661F771F040F151F261F371F000F111F0E
:1006B000221F331F801B910BA20BB30B80934101B0
:1006C00090934201A0934301B09344011FC0C4160C
:1006D000D506E606F706D0F4B901A801440F551F68
:1006E000661F771F040F151F261F371F000F111FCE
:1006F000221F331F080F191F2A1F3B1F00934101A0
:10070000109342012093430130934401E0913C0156
:10071000F0913D01809141019091420109950CC0F9
:10072000823051F0F801108A07C0E0913C01F0914D
:100730003D0180E090E00995DF91CF911F910F91ED
:10074000FF90EF90DF90CF90BF90AF909F908F90F1
:10075000089580FF02C05E9A01C05E9881FF02C0CA
:100760005F9A01C05F9882FF02C0289A01C0289852
:1007700083FF02C0299A089529980895CF93C82F1E
:100780005C9A82958F700E94A9035C985C9A8C2F6A
:100790000E94A9035C9885E88A95F1F70000CF9143
:1007A00008955D980E94BE0308955D9A0E94BE035D
:1007B0000895CF93DF93EC018881882331F021964F
:1007C0000E94D50389918111FBCFDF91CF910895CC
:1007D00090E4699F800D112480680E94D1030895E0
:1007E00081E00E94D1038FE99FE00197F1F700C0FB
:1007F00000000895CF93569A579A209A219A549AB6
:10080000559A8FE295E70197F1F700C000005D98D7
:100810005C98C3E05C9A83E00E94A9035C988FE037
:1008200097E20197F1F700C00000C15099F75C9A78
:1008300082E00E94A9035C988FEC97E00197F1F7A2
:1008400000C0000088E20E94D10388E00E94D1032A
:1008500081E00E94D1038FE99FE00197F1F700C08A
:10086000000086E00E94D1038CE00E94D103CF916A
:100870000895CF93DF93DC01ED91FC91AFE5B1E0FA
:100880001196FC93EE93EC018A819B8113969C93C5
:100890008E93129709950E94FA03DF91CF910895E4
:1008A0000E94E8038EE00E94D10308958CE00E942C
:1008B000D10308950E94F0030895813069F018F083
:1008C000823099F01BC061E08DE00E94E80380E077
:1008D00091E00E94D903089561E08DE00E94E80351
:1008E00084E091E00E94D903089561E08DE00E94C8
:1008F000E80387E091E00E94D903089561E08DE06C
:100900000E94E8038AE091E00E94D9030895DC0187
:10091000CB014AE065E471E00E94EA0985E491E0D8
:100920000E94D9030895CF92DF92EF92FF926B015C
:100930007C0160E080E00E94E803C701B6010E94EC
:1009400087048EE091E00E94D903FF90EF90DF9042
:10095000CF900895CF92DF92EF92FF926B017C01CE
:1009600060E088E00E94E803C701B6010E948704A6
:1009700081E191E00E94D903FF90EF90DF90CF904A
:100980000895CF92DF92EF92FF926B017C0161E0BC
:1009900080E00E94E803C701B6010E94870484E159
:1009A00091E00E94D903FF90EF90DF90CF900895DF
:1009B000CF92DF92EF92FF926B017C0161E087E0C2
:1009C0000E94E803C701B6010E94870485E091E018
:1009D0000E94D903FF90EF90DF90CF900895CF93BE
:1009E000DF93EC0161E087E00E94E8036B8170E037
:1009F00080E090E00E94870487E191E00E94D903A3
:100A00008A818A3028F460E070E0CB010E9487047C
:100A10006A8170E080E090E00E948704DF91CF91CE
:100A200008950E94D9030895E0916101F091620157
:100A3000099591E0811101C090E0892F08958AB154
:100A4000837F8AB93B988BB18C608BB9439A0895A8
:100A5000813039F018F0823039F009C089B18470E2
:100A6000089589B18870089586B18870089581E0ED
:100A700008950E94B1000895CF93DF931F92CDB7E0
:100A8000DEB7498321E030E0AE014F5F5F4F0E9447
:100A900004010F90DF91CF910895CF93DF931F92C0
:100AA000CDB7DEB7198221E030E0AE014F5F5F4F76
:100AB00080E00E94360189810F90DF91CF910895E7
:100AC0000E94680008950E947B0008950F931F9371
:100AD000CF93DF93EC018B01FB01648170E080E038
:100AE00090E00E94E80187E191E00E94D901F801BD
:100AF000638170E080E090E00E94E80187E191E08E
:100B00000E94D901F801628170E080E090E00E94CB
:100B1000E80187E191E00E94D901F80160817181CB
:100B200080E090E00E94E80189E191E00E94D90113
:100B3000688579858A859B850E94E80189E191E035
:100B40000E94D9016C857D858E859F850E94E80174
:100B500089E191E00E94D901688179818A819B8134
:100B60000E94E80189E191E00E94D9016C817D81B8
:100B70008E819F810E94E80183E391E00E94D90168
:100B8000DF91CF911F910F910895FC01623019F10F
:100B9000633099F16130D9F5808191818C599F4FF3
:100BA000883E23E0920719F0918380830895118293
:100BB000108282818F5F8C3311F0828308951282BC
:100BC00083818F5F8C3311F0838308951382848136
:100BD0008F5F8483089582818F5F8C3311F08283CD
:100BE0000895128283818F5F8C3311F0838308957F
:100BF000138284818F5F8483089583818F5F8C3318
:100C000011F083830895138284818F5F8483089514
:100C1000FC01623059F1633009F441C0613009F0E0
:100C20004EC0808191810097E9F487EE93E0918333
:100C300080838281811113C08BE382838381811140
:100C40000BC08BE383838481811103C087E184839C
:100C5000089581508483089581508383089581503D
:100C60008283089501979183808308958281811101
:100C700013C08BE38283838181110BC08BE3838359
:100C80008481811103C087E1848308958150848326
:100C900008958150838308958150828308958381CC
:100CA00081110BC08BE383838481811103C087E1B1
:100CB00084830895815084830895815083830895A7
:100CC000FC019481DB0114968C91149798130EC04B
:100CD000938113968C91139798130AC081E0228117
:100CE00012969C91291729F080E0089580E00895DC
:100CF00080E00895CF93DF93CDB7DEB7EF970FB6BF
:100D0000F894DEBF0FBECDBF8FE195E09A83898353
:100D100088E295E09C838B8389E395E098878F83B5
:100D20008DE495E09A8789878CE395E09E838D8397
:100D300080E695E09E878D8783E695E09C878B878C
:100D400083E098E0988B8F8781E0898B82E08A8BA3
:100D50001B8A1EAA1DAA1FAA18AE19AE1BAE1AAE78
:100D60008EE18CAF1DAE1EAE1FAE83E390E00E94FD
:100D7000BD0183E00E947901CE0101960E943904F1
:100D8000CE0105960E94EA07CE010B960E94100242
:100D90008BE191E00E9411052FEF84E39CE021504C
:100DA00080409040E1F700C0000088E290E0A0E0C1
:100DB000B0E08CA39DA3AEA3BFA384E690E0A0E027
:100DC000B0E088A799A7AAA7BBA788EE93E0A0E008
:100DD000B0E08CA79DA7AEA7BFA784EF91E0A0E0ED
:100DE000B0E088AB99ABAAABBBAB1CAA0E94F003E6
:100DF0000F2EF4E6CF2ED12CE12CF12CF02D1BEA96
:100E0000BE016C5D7F4FCE0144960E94C00280E01F
:100E10000E94140581111EC0AE01415C5F4FBE01EE
:100E2000665C7F4FCE0184960E94A30825E6C21619
:100E3000D104E104F10428F084E6C81AD108E108DD
:100E4000F1089FEF20E782E0915020408040E1F7D9
:100E500000C0000081E00E94140581111FC0AE0196
:100E6000415C5F4FBE01665C7F4FCE0184960E945D
:100E70002C0898E8C91693E1D906E104F10428F496
:100E800024E6C20ED11CE11CF11C8FEF90E722E09A
:100E9000815090402040E1F700C0000082E00E94B5
:100EA0001405811110C08CA9811104C0CE01CF9608
:100EB0000E9423088FEF90E722E08150904020406D
:100EC000E1F700C000000E94B601813009F098CF20
:100ED0000E945A048CA981112DC068A579A58AA504
:100EE0009BA50E9493046CA57DA58EA59FA50E943D
:100EF000C10468A979A98AA99BA90E94AA046CA126
:100F00007DA18EA19FA10E94D8048CA90E945D049E
:100F10008FAD8450823020F4CE01CA960E94EF0437
:100F2000CE01CF960E94170919AE18AE1FAA1EAAAD
:100F30001DAA66CF813009F063CF0E9456046C89E8
:100F40007D898E899F890E94930468A179A18AA1D5
:100F50009BA10E94C104688D798D8A8D9B8D0E9412
:100F6000AA04BE016B5C7F4FCE0144960E946605C9
:100F70008CA90E945D0461E0CE01C5960E94C50562
:100F80009FA9919F812D11248695282F220F820FD2
:100F9000981307C06C8D7D8D8E8D9F8D0E94D80417
:100FA00004C0CE01C5960E94EF04BE01665C7F4F6F
:100FB000CE01C5960E946006813009F021CF1CAA9F
:100FC00083E291E00E94D90119AE18AE1FAA1EAAB1
:100FD0001DAA16CFCF93DF93EC01EA81FB81A9E52F
:100FE000B1E01396FC93EE9312978C819D81159638
:100FF0009C938E931497888199818D939C930995E6
:10100000DF91CF9108958E3723E1920760F49C0120
:10101000A8EEB3E00E947E0924EC34E040E050E00A
:101020000E94560904C02FEF3FE040E050E09927AE
:10103000852F742F632FE0915901F0915A01422FAF
:1010400082EC09950895FC0190819F5F973010F420
:1010500090830895108208959B01DA01EC914E2F40
:1010600050E04730510508F06DC0DC01FA01EC5C3E
:10107000FF4F0C94780914964D915D916D917C9180
:1010800017974A3F51056105710508F05BC0465F3F
:101090005F4F6F4F7F4F14964D935D936D937C938D
:1010A000179708951C964D915D916D917C911F97B6
:1010B000403E8EE258076105710508F043C04C5967
:1010C0005F4F6F4F7F4F1C964D935D936D937C9355
:1010D0001F97089518964D915D916D917C911B9786
:1010E000483883E158076105710560F54C595F4F39
:1010F0006F4F7F4F18964D935D936D937C931B9725
:1011000008954D915D916D917C91139744365105F1
:1011100061057105B8F44F5F5F4F6F4F7F4F4D937F
:101120005D936D937C931397089563E0C9010E94CA
:10113000C505089562E0C9010E94C505089581E0D2
:1011400050968C9308959B01DA01EC914E2F50E05C
:101150004730510508F06AC0DC01FA01E55CFF4F39
:101160000C94780914964D915D916D917C9117972F
:101170004B3051056105710508F458C04A505109BA
:101180006109710914964D935D936D937C93179744
:1011900008951C964D915D916D917C911F974536F8
:1011A00051056105710508F441C0445651096109B2
:1011B00071091C964D935D936D937C931F970895D1
:1011C00018964D915D916D917C911B974536510517
:1011D0006105710558F14456510961097109189664
:1011E0004D935D936D937C931B9708954D915D9105
:1011F0006D917C9113974F31510561057105B0F0E8
:1012000041505109610971094D935D936D937C9330
:101210001397089563E0C9010E940806089562E0EB
:10122000C9010E940806089550961C920895DC0199
:10123000EC918E2F90E08730910538F5FC01EE5B44
:10124000FF4F0C94780960E080E00E9450040895FC
:1012500060E088E00E945004089561E080E00E9410
:101260005004089561E087E00E945004089561E011
:1012700087E00E945004089561E08AE00E945004D3
:10128000089561E08DE00E9450040895DB018F9382
:101290009F930E948D09BF91AF91A29F800D911DD8
:1012A000A39F900DB29F900D11240895A1E21A2ED4
:1012B000AA1BBB1BFD010DC0AA1FBB1FEE1FFF1FFA
:1012C000A217B307E407F50720F0A21BB30BE40B4A
:1012D000F50B661F771F881F991F1A9469F7609591
:1012E0007095809590959B01AC01BD01CF0108954B
:1012F000EE0FFF1F0590F491E02D0994A29FB0011D
:10130000B39FC001A39F700D811D1124911DB29F39
:10131000700D811D1124911D08950E947E09A59FC5
:10132000900DB49F900DA49F800D911D11240895E0
:10133000E894DF93CF93FC01DB010E947E097F9349
:101340006F93E9019A01AC01BF93AF933F932F9341
:10135000DF010E947E0926F46C1B7D0B820B930B30
:101360009E01EB01FC010E94E109AF91BF912F9119
:101370003F910E94E109BE01CF01F9012F913F91F8
:10138000CF91DF91089597FB10F8169400080F9302
:10139000083098F00850232F342F452F562F672FF1
:1013A000782F892F902DF4CF059497958795779571
:1013B000679557954795379527950A95AAF70F9101
:1013C00008950E947E09460F571FC81FD91F08F4B1
:1013D00031960895BB274A3031F4992322F4BDE2B7
:1013E000909581959F4F0C94F609BB27FB015527DB
:1013F000AA27880F991FAA1FA41710F0A41B839572
:101400005051B9F7A05DAA3308F0A95DA1930097E8
:1014100079F7B111B1931192CB010C940F0ADC0151
:10142000FC01672F71917723E1F7329704C07C911B
:101430006D9370836291AE17BF07C8F30895F89457
:02144000FFCFDC
:101442004F464600434300435000455252006D410F
:10145200006D56006D57003A002C004443204C4F5B
:10146200414400204B6F6E69656320706F6D696146
:081472007275200D200A000034
:00000001FF
